{
  "contractName": "CoffeeBuggy",
  "abi": [
    {
      "anonymous": false,
      "inputs": [
        {
          "indexed": false,
          "name": "_from",
          "type": "address"
        },
        {
          "indexed": false,
          "name": "_to",
          "type": "address"
        },
        {
          "indexed": false,
          "name": "value",
          "type": "uint256"
        }
      ],
      "name": "Trans",
      "type": "event",
      "signature": "0x9bcd4a080462731b2812ce729d5733221a967dfbb88c63391ad7091471ea8431"
    },
    {
      "constant": false,
      "inputs": [],
      "name": "deposit",
      "outputs": [],
      "payable": true,
      "stateMutability": "payable",
      "type": "function",
      "signature": "0xd0e30db0"
    },
    {
      "constant": false,
      "inputs": [],
      "name": "withdraw",
      "outputs": [
        {
          "name": "",
          "type": "uint256"
        }
      ],
      "payable": false,
      "stateMutability": "nonpayable",
      "type": "function",
      "signature": "0x3ccfd60b"
    },
    {
      "constant": false,
      "inputs": [
        {
          "name": "_producer",
          "type": "address"
        },
        {
          "name": "_farmer",
          "type": "address"
        },
        {
          "name": "value",
          "type": "uint256"
        }
      ],
      "name": "pay",
      "outputs": [
        {
          "name": "success",
          "type": "bool"
        }
      ],
      "payable": false,
      "stateMutability": "nonpayable",
      "type": "function",
      "signature": "0xb3d76188"
    },
    {
      "constant": false,
      "inputs": [
        {
          "name": "_producer",
          "type": "address"
        },
        {
          "name": "_farmer",
          "type": "address"
        }
      ],
      "name": "purchase",
      "outputs": [],
      "payable": true,
      "stateMutability": "payable",
      "type": "function",
      "signature": "0xdde5a65d"
    }
  ],
  "bytecode": "0x608060405234801561001057600080fd5b506109ac806100206000396000f3fe608060405260043610610062576000357c0100000000000000000000000000000000000000000000000000000000900463ffffffff1680633ccfd60b14610067578063b3d7618814610092578063d0e30db014610125578063dde5a65d1461012f575b600080fd5b34801561007357600080fd5b5061007c610193565b6040518082815260200191505060405180910390f35b34801561009e57600080fd5b5061010b600480360360608110156100b557600080fd5b81019080803573ffffffffffffffffffffffffffffffffffffffff169060200190929190803573ffffffffffffffffffffffffffffffffffffffff16906020019092919080359060200190929190505050610269565b604051808215151515815260200191505060405180910390f35b61012d6107c8565b005b6101916004803603604081101561014557600080fd5b81019080803573ffffffffffffffffffffffffffffffffffffffff169060200190929190803573ffffffffffffffffffffffffffffffffffffffff1690602001909291905050506108d6565b005b6000806000803373ffffffffffffffffffffffffffffffffffffffff1673ffffffffffffffffffffffffffffffffffffffff16815260200190815260200160002054905060008060003373ffffffffffffffffffffffffffffffffffffffff1673ffffffffffffffffffffffffffffffffffffffff168152602001908152602001600020819055503373ffffffffffffffffffffffffffffffffffffffff166108fc829081150290604051600060405180830381858888f19350505050158015610261573d6000803e3d6000fd5b508091505090565b6000670de0b6b3a764000082111515156102eb576040517f08c379a00000000000000000000000000000000000000000000000000000000081526004018080602001828103825260188152602001807f56616c75652065786365656473204d41585f56414c55452e000000000000000081525060200191505060405180910390fd5b816000803373ffffffffffffffffffffffffffffffffffffffff1673ffffffffffffffffffffffffffffffffffffffff16815260200190815260200160002054101515156103c7576040517f08c379a00000000000000000000000000000000000000000000000000000000081526004018080602001828103825260298152602001807f4e6f7420656e6f7567682062616c616e63652e20427579206e6577206372656481526020017f69742066697273742e000000000000000000000000000000000000000000000081525060400191505060405180910390fd5b816000803373ffffffffffffffffffffffffffffffffffffffff1673ffffffffffffffffffffffffffffffffffffffff1681526020019081526020016000206000828254039250508190555060008060008673ffffffffffffffffffffffffffffffffffffffff1673ffffffffffffffffffffffffffffffffffffffff1681526020019081526020016000205414156104ae5760028281151561046657fe5b046000808673ffffffffffffffffffffffffffffffffffffffff1673ffffffffffffffffffffffffffffffffffffffff16815260200190815260200160002081905550610507565b6002828115156104ba57fe5b046000808673ffffffffffffffffffffffffffffffffffffffff1673ffffffffffffffffffffffffffffffffffffffff168152602001908152602001600020600082825401925050819055505b7f9bcd4a080462731b2812ce729d5733221a967dfbb88c63391ad7091471ea8431338560028581151561053657fe5b04604051808473ffffffffffffffffffffffffffffffffffffffff1673ffffffffffffffffffffffffffffffffffffffff1681526020018373ffffffffffffffffffffffffffffffffffffffff1673ffffffffffffffffffffffffffffffffffffffff168152602001828152602001935050505060405180910390a160008060008573ffffffffffffffffffffffffffffffffffffffff1673ffffffffffffffffffffffffffffffffffffffff16815260200190815260200160002054141561064d5760028281151561060557fe5b046000808573ffffffffffffffffffffffffffffffffffffffff1673ffffffffffffffffffffffffffffffffffffffff168152602001908152602001600020819055506106a6565b60028281151561065957fe5b046000808573ffffffffffffffffffffffffffffffffffffffff1673ffffffffffffffffffffffffffffffffffffffff168152602001908152602001600020600082825401925050819055505b7f9bcd4a080462731b2812ce729d5733221a967dfbb88c63391ad7091471ea843133846002858115156106d557fe5b04604051808473ffffffffffffffffffffffffffffffffffffffff1673ffffffffffffffffffffffffffffffffffffffff1681526020018373ffffffffffffffffffffffffffffffffffffffff1673ffffffffffffffffffffffffffffffffffffffff168152602001828152602001935050505060405180910390a160006002808481151561076057fe5b04028303905060008111156107bc57806000803373ffffffffffffffffffffffffffffffffffffffff1673ffffffffffffffffffffffffffffffffffffffff168152602001908152602001600020600082825401925050819055505b60019150509392505050565b670de0b6b3a76400006000803373ffffffffffffffffffffffffffffffffffffffff1673ffffffffffffffffffffffffffffffffffffffff16815260200190815260200160002054340111151515610888576040517f08c379a000000000000000000000000000000000000000000000000000000000815260040180806020018281038252601f8152602001807f4465706f7369742065786365656473206163636f756e7473206c696d69742e0081525060200191505060405180910390fd5b346000803373ffffffffffffffffffffffffffffffffffffffff1673ffffffffffffffffffffffffffffffffffffffff16815260200190815260200160002060008282540192505081905550565b8173ffffffffffffffffffffffffffffffffffffffff166108fc6002348115156108fc57fe5b049081150290604051600060405180830381858888f19350505050158015610928573d6000803e3d6000fd5b508073ffffffffffffffffffffffffffffffffffffffff166108fc60023481151561094f57fe5b049081150290604051600060405180830381858888f1935050505015801561097b573d6000803e3d6000fd5b50505056fea165627a7a72305820398171400c1d041501096c15392dd62c348cd1939d45e3c4c354b5f8f5bc804f0029",
  "source": "pragma solidity >=0.4.22 <0.6.0;\n\ncontract CoffeeBuggy {\n    mapping (address => uint) private balance;\n\n    uint private constant MIN_VALUE = 10000;\n    uint private constant MAX_VALUE = 1 ether;\n\n    event Trans(address _from, address _to, uint256 value);\n\n\n    function deposit() public payable {\n        require(msg.value+balance[msg.sender] <= MAX_VALUE, \"Deposit exceeds accounts limit.\");\n        balance[msg.sender] += msg.value;\n    }\n\n    function withdraw() public returns (uint256){\n\n        uint userDepo = balance[msg.sender];\n        balance[msg.sender] = 0;\n        msg.sender.transfer(userDepo);\n        return userDepo;\n    }\n\n    function pay(address _producer, address _farmer, uint256 value) public returns (bool success) {\n        require(value <= MAX_VALUE, \"Value exceeds MAX_VALUE.\");\n        require(balance[msg.sender] >= value, \"Not enough balance. Buy new credit first.\");\n        balance[msg.sender] -= value;\n\n        if(balance[_producer] == 0) { balance[_producer] = value/2; }\n        else balance[_producer] += value/2;\n        emit Trans(msg.sender, _producer, value/2);\n\n        if(balance[_farmer] == 0) { balance[_farmer] = value/2; }\n        else { balance[_farmer] += value/2; }\n        emit Trans(msg.sender, _farmer, value/2);\n\n        uint256 rest = value - value/2*2;\n        if(rest > 0) { balance[msg.sender] += rest; }\n        return true;\n    }\n\n    function purchase(address payable _producer, address payable _farmer) public payable {\n        _producer.transfer(msg.value/2);\n        _farmer.transfer(msg.value/2);\n    }\n}",
  "sourcePath": "/home/constantin/Documents/hackathon/coffee/contracts/CoffeeBuggy.sol",
  "compiler": {
    "name": "solc",
    "version": "0.5.0+commit.1d4f565a.Emscripten.clang"
  },
  "schemaVersion": "3.0.1",
  "updatedAt": "2019-01-22T21:53:14.329Z",
  "devdoc": {
    "methods": {}
  },
  "userdoc": {
    "methods": {}
  }
}