{
  "contractName": "CoffeeExchange",
  "abi": [
    {
      "constant": true,
      "inputs": [],
      "name": "counter",
      "outputs": [
        {
          "name": "",
          "type": "uint256"
        }
      ],
      "payable": false,
      "stateMutability": "view",
      "type": "function",
      "signature": "0x61bc221a"
    },
    {
      "inputs": [],
      "payable": false,
      "stateMutability": "nonpayable",
      "type": "constructor",
      "signature": "constructor"
    },
    {
      "constant": true,
      "inputs": [],
      "name": "getCounter",
      "outputs": [
        {
          "name": "",
          "type": "uint256"
        }
      ],
      "payable": false,
      "stateMutability": "view",
      "type": "function",
      "signature": "0x8ada066e"
    },
    {
      "constant": false,
      "inputs": [],
      "name": "increment",
      "outputs": [],
      "payable": false,
      "stateMutability": "nonpayable",
      "type": "function",
      "signature": "0xd09de08a"
    }
  ],
  "bytecode": "0x608060405234801561001057600080fd5b50600160008190555061010a806100286000396000f3fe6080604052600436106053576000357c0100000000000000000000000000000000000000000000000000000000900463ffffffff16806361bc221a1460585780638ada066e146080578063d09de08a1460a8575b600080fd5b348015606357600080fd5b50606a60bc565b6040518082815260200191505060405180910390f35b348015608b57600080fd5b50609260c2565b6040518082815260200191505060405180910390f35b34801560b357600080fd5b5060ba60cb565b005b60005481565b60008054905090565b600080815480929190600101919050555056fea165627a7a723058204c864296ee7bb0b47082e017c95576e97dfdde66c331499e106f6619ac54f26c0029",
  "source": "pragma solidity 0.5;\ncontract CoffeeExchange {\n    uint256 public counter;\n    \n    constructor() public {\n        counter = 1;\n    }\n    \n    function getCounter() public view returns (uint256) {\n        return counter;\n    }\n    \n    function increment() public {\n        counter++;\n    }\n}",
  "sourcePath": "/home/constantin/Documents/hackathon/coffee/contracts/CoffeeExchange.sol",
  "compiler": {
    "name": "solc",
    "version": "0.5.0+commit.1d4f565a.Emscripten.clang"
  },
  "schemaVersion": "3.0.1",
  "updatedAt": "2019-01-22T18:50:20.494Z",
  "devdoc": {
    "methods": {}
  },
  "userdoc": {
    "methods": {}
  }
}