{
  "contractName": "CoffeeExchange",
  "abi": [
    {
      "inputs": [],
      "payable": false,
      "stateMutability": "nonpayable",
      "type": "constructor",
      "signature": "constructor"
    },
    {
      "constant": false,
      "inputs": [
        {
          "name": "_user",
          "type": "address"
        }
      ],
      "name": "refill",
      "outputs": [],
      "payable": false,
      "stateMutability": "nonpayable",
      "type": "function",
      "signature": "0x833f43c2"
    },
    {
      "constant": false,
      "inputs": [],
      "name": "transfer",
      "outputs": [],
      "payable": true,
      "stateMutability": "payable",
      "type": "function",
      "signature": "0x8a4068dd"
    },
    {
      "constant": false,
      "inputs": [
        {
          "name": "_buyer",
          "type": "address"
        },
        {
          "name": "_producer",
          "type": "address"
        },
        {
          "name": "_farmer",
          "type": "address"
        },
        {
          "name": "value",
          "type": "uint256"
        },
        {
          "name": "donation",
          "type": "uint256"
        }
      ],
      "name": "multiTransfer",
      "outputs": [
        {
          "name": "success",
          "type": "bool"
        }
      ],
      "payable": false,
      "stateMutability": "nonpayable",
      "type": "function",
      "signature": "0xcea24aca"
    }
  ],
  "bytecode": "0x608060405234801561001057600080fd5b50336000806101000a81548173ffffffffffffffffffffffffffffffffffffffff021916908373ffffffffffffffffffffffffffffffffffffffff160217905550610387806100606000396000f3fe608060405260043610610057576000357c0100000000000000000000000000000000000000000000000000000000900463ffffffff168063833f43c21461005c5780638a4068dd146100ad578063cea24aca146100b7575b600080fd5b34801561006857600080fd5b506100ab6004803603602081101561007f57600080fd5b81019080803573ffffffffffffffffffffffffffffffffffffffff169060200190929190505050610174565b005b6100b56101bd565b005b3480156100c357600080fd5b5061015a600480360360a08110156100da57600080fd5b81019080803573ffffffffffffffffffffffffffffffffffffffff169060200190929190803573ffffffffffffffffffffffffffffffffffffffff169060200190929190803573ffffffffffffffffffffffffffffffffffffffff169060200190929190803590602001909291908035906020019092919050505061020c565b604051808215151515815260200191505060405180910390f35b6103e8600160008373ffffffffffffffffffffffffffffffffffffffff1673ffffffffffffffffffffffffffffffffffffffff1681526020019081526020016000208190555050565b34600160003373ffffffffffffffffffffffffffffffffffffffff1673ffffffffffffffffffffffffffffffffffffffff16815260200190815260200160002060008282540192505081905550565b6000818301600160008873ffffffffffffffffffffffffffffffffffffffff1673ffffffffffffffffffffffffffffffffffffffff168152602001908152602001600020541015905080151561034f5761026586610174565b818301600160008873ffffffffffffffffffffffffffffffffffffffff1673ffffffffffffffffffffffffffffffffffffffff1681526020019081526020016000206000828254039250508190555082600160008773ffffffffffffffffffffffffffffffffffffffff1673ffffffffffffffffffffffffffffffffffffffff1681526020019081526020016000206000828254019250508190555081600160008673ffffffffffffffffffffffffffffffffffffffff1673ffffffffffffffffffffffffffffffffffffffff168152602001908152602001600020600082825401925050819055505b8090509594505050505056fea165627a7a72305820b90489796aa9eea690f14eb4874c7703c720f5ec83412544051b86ed27f761110029",
  "source": "pragma solidity >=0.4.22 <0.6.0;\ncontract CoffeeExchange {\n    address owner;\n    mapping(address => uint256) private balances;\n    \n    constructor() public {\n        owner = msg.sender;\n    }\n    \n    function refill(address _user) public {\n        balances[_user] = 1000;\n    }\n    \n    function transfer() external payable {\n        balances[msg.sender] += msg.value;\n    }\n    \n    function multiTransfer(address _buyer, address _producer, address _farmer, uint256 value, uint256 donation) public returns (bool success) {\n        success = (balances[_buyer] >= value+donation);\n        if(!success) {\n            refill(_buyer);\n            balances[_buyer] -= value+donation;\n            balances[_producer] += value;\n            balances[_farmer] += donation;\n        }\n        return success;\n    }\n}\n",
  "sourcePath": "/home/constantin/Documents/hackathon/chainTest/contracts/Coffee.sol",
  "compiler": {
    "name": "solc",
    "version": "0.5.0+commit.1d4f565a.Emscripten.clang"
  },
  "schemaVersion": "3.0.1",
  "updatedAt": "2019-01-17T15:35:05.534Z",
  "devdoc": {
    "methods": {}
  },
  "userdoc": {
    "methods": {}
  }
}